:100000000004FFFF00130000000400000004430090
:10001000000B040000046F00000B040000046300E8
:10002000000B040000046F00000B040000042D000E
:10003000000B040000044E00000B040000046900E3
:10004000000B040000046D00000B040000046200BB
:10005000000B040000047500000B04000004730092
:10006000000B040000042D00000B0400000431000C
:10007000000B040000043600000B04000004200004
:10008000000B040000044F00000B040000045300A8
:10009000000B040000042000000B040000043600E4
:1000A000000B040000043400000B040000044B00AB
:1000B000000B040000040A00000B040000045300BD
:1000C000000B040000047400000B04000004610035
:1000D000000B040000046300000B040000046B002C
:1000E000000B040000042000000B04000004490081
:1000F000000B040000046E00000B04000004690003
:10010000000B040000047400000B040000046900EC
:10011000000B040000046100000B040000046C00EC
:10012000000B040000046900000B040000047300CD
:10013000000B040000046500000B040000046400D0
:10014000000B040000042000000B04000004610008
:10015000000B040000047400000B040000042000E5
:10016000000B040000043000000B040000047800C1
:10017000000B040000044600000B040000044600CD
:10018000000B040000044600000B040000044600BD
:10019000000B040000040A00000B040000045200DD
:1001A000000B040000044500000B040000044100A3
:1001B000000B040000044400000B0400000459007C
:1001C000000B040000040A00000B040000043E00C1
:0801D000000B0400000F000009
:00000001FF
